:020000040800F2
:1000000050090020890200089702000899020008A0
:100010009B0200089D0200089F02000800000000EB
:10002000000000000000000000000000A102000825
:10003000A302000800000000A5020008A7020008B3
:10004000A9020008A9020008A9020008A9020008E4
:10005000A9020008A9020008A9020008A9020008D4
:10006000A9020008A9020008A9020008A9020008C4
:10007000A9020008A9020008A9020008A9020008B4
:10008000A9020008A9020008A9020008A9020008A4
:10009000A9020008A9020008A9020008A902000894
:1000A000A9020008A9020008A9020008A902000884
:1000B000A9020008A902000885110008A902000889
:1000C000A9020008A9020008A9020008A902000864
:1000D000A90200081112000891120008A9020008E4
:1000E000A9020008A9020008A9020008A902000844
:1000F000A9020008A9020008A9020008A902000834
:10010000A9020008A9020008A9020008A902000823
:10011000A9020008A9020008A9020008A902000813
:10012000A9020008A9020008A9020008A902000803
:10013000A9020008A9020008A9020008A9020008F3
:10014000A9020008A9020008A9020008A9020008E3
:10015000A9020008A9020008A9020008A9020008D3
:10016000A9020008A9020008A9020008A9020008C3
:10017000A9020008A9020008A9020008A9020008B3
:10018000A9020008A902000800F002F800F06DF8CA
:100190000AA090E8000C82448344AAF10107DA45E2
:1001A00001D100F062F8AFF2090EBAE80F0013F0C7
:1001B000010F18BFFB1A43F001031847E4250000A4
:1001C000042600000A444FF0000C10F8013B13F025
:1001D000070408BF10F8014B1D1108BF10F8015BA0
:1001E000641E05D010F8016B641E01F8016BF9D193
:1001F00013F0080F1EBF10F8014BAD1C0C1B09D1EA
:100200006D1E58BF01F801CBFAD505E014F8016B5B
:1002100001F8016B6D1EF9D59142D6D370470000ED
:100220000023002400250026103A28BF78C1FBD8FF
:10023000520728BF30C148BF0B607047642900F0E7
:10024000A380752900F0A080782900F0D980632967
:1002500000F02D82732900F03282002070471FB514
:1002600002F01EFA1FBD10B510BD00F05BFA11467A
:10027000FFF7F5FF01F0ACF800F079FA03B4FFF7EF
:10028000F2FF03BC01F01BF80B48016841F4700158
:1002900001600A480047FEE7FEE7FEE7FEE7FEE7EB
:1002A000FEE7FEE7FEE7FEE7FEE70000044805493B
:1002B000034A054B7047000088ED00E08901000803
:1002C0005005002050090020500500207047000014
:1002D0000FB4044910B503AA029800F0F5F910BC58
:1002E0005DF814FB5402002070B50446856900686F
:1002F000C10601D5302600E02026C00707D070BD1A
:10030000D4E9012130469047206A401C20626D1ECE
:10031000F6D570BD70B5044685690078C00707D171
:1003200070BDD4E9012120209047206A401C206242
:100330006D1EF6D570BD70B50C460546012A05D078
:100340002878800600D5EA69002302E0012305E051
:100350005B1C934202D2E05C0028F9D1A869E61840
:10036000C01AA861286A184428622846FFF7BCFF13
:1003700004E0D5E9012114F8010B9047B442F8D309
:100380002846FFF7C7FF70BD2DE9F041064600245F
:1003900010687529314616A510D0AFF300800028EB
:1003A00002DA404213A507E031688A0701D512A599
:1003B00002E0490704D511A5012401E0AFF3008054
:1003C00000210A2206F1240709E0B0FBF2FCB0FB91
:1003D000F2F302FB1C00303078541846491C002808
:1003E000F3D123462A463046BDE8F04100F0FCB880
:1003F000000000002D0000002B0000002000000085
:1004000070B504460D4621461068AFF30080218880
:10041000090502D50F4A7A4402E00E4A7A440E32A8
:10042000002104F1240305E000F00F060009965DA9
:100430005E54491C0028F7D120780023000704D51A
:10044000702D02D009B1022311322046BDE8704060
:1004500000F0CAB8902200002DE9F05F89460446FA
:100460004FF0000ADFF874B1FB44C0F820A020462A
:10047000E1688847002874D0252806D0D4E90121F6
:100480009047206A401C2062F1E700265F46204624
:10049000E16888472028054607DB312D05D2781909
:1004A00010F8200C08B10643F1E7B00701D526F09B
:1004B0000406C4F81CA00027C4F818A02A2D09D0EF
:1004C000284600F0F5FE38B304EB8708303DC8F845
:1004D000185019E059F8041B204604EB870291617B
:1004E000E1688847012F054618D1E069002820DA25
:1004F00026F020061DE0D8F8180000EB800005EB80
:1005000040003038C8F818002046E16888470546A2
:1005100000F0CEFE0028EED1012F0AD02E2D08D1FA
:100520002046E16888477F1C0546022F46F02006DA
:10053000C4DBA069002803DA404246F00106A0614E
:10054000F00701D026F010066C2D0BD0682D09D0D5
:100550004C2D39D06A2D35D0742D35D07A2D33D02D
:1005600016E038E0E1682F4620468847B842054645
:1005700009D16C2F26D04FF48060E16806432046F5
:100580008847054604E06C2F1AD04FF4807006436C
:100590000DB3A5F14100192802D8203546F40066B4
:1005A0004A462946204626604E46FFF747FE80B160
:1005B00001280BD0F61D26F0070000F1080956E7C8
:1005C0004020E4E78020D8E70020D6E706F10409C0
:1005D0004DE7284652E7206ABDE8F09F66220000FA
:1005E00070477047704770472DE9F0470D469946B0
:1005F0009246044600F124080168880604D5E069A3
:1006000021F01001216000E00120A84201DD471B1C
:1006100000E00027A1697A1902EB0900081AA0611D
:100620002078C00602D42046FFF75EFE002608E0D0
:10063000D4E901211AF806009047206A401C761C74
:1006400020624E45F4DB2078C0060AD52046FFF72D
:100650004BFE06E0D4E9012130209047206A401C7F
:100660002062381EA7F10107F4DC07E0D4E901217C
:1006700018F805009047206A401C2062281EA5F14A
:100680000105F3DC2046FFF745FE2078000602D581
:100690000220BDE8F0870120FBE710B5436913B1E4
:1006A000AFF3008001E0FFF746FE012010BD127895
:1006B00000F124010A7000224A700122EDE711685E
:1006C0004FF0FF32E9E70000074B70B50D467B4461
:1006D00000F011F80446284600F020F810B14FF061
:1006E000FF3070BD204670BDE30C000001694A1C5C
:1006F00002610878704700B58FB0CDE90131002163
:10070000059105497944CDE9031011466846FFF784
:10071000A3FE0FB000BD0000E5FFFFFF007B00F06F
:1007200080007047754600F02BF8AE46050069461C
:10073000534620F00700854618B020B5FFF7B6FDF8
:10074000BDE820404FF000064FF000074FF00008D2
:100750004FF0000B21F00701AC46ACE8C009ACE853
:10076000C009ACE8C009ACE8C0098D46704710B5B7
:100770000446AFF300802046BDE81040FFF77EBD81
:1007800000487047F004002070B503460C46FF2572
:10079000FF26002209E0985C80EA05010548405CDC
:1007A00080EA06050448465C521CA242F3DB46EA96
:1007B000052070BD5300002053010020E7490A784E
:1007C0000978491CE54B1970E549885419460978A0
:1007D000012900D17047E1490978022907D1E04990
:1007E0004978032902D00021DC4A1170F2E7DB4985
:1007F0000978032905D1DA498978491DD94A117048
:10080000E8E7D6490978D74A1278914200DAE1E759
:100810000021D54A117010E0D349097801EB81011C
:10082000D24A32F83110CE4A1278914200D108E013
:10083000CD490978491CCC4A1170CB490978032964
:10084000EADB00BFC849097801EB8101C74A02EB26
:10085000C10149883D297DD1C1490979C04AD27871
:1008600041EA022109B2C24A1180BD498979BC4AD4
:10087000527941EA022109B2BD4A5180B849097A48
:10088000B74AD27941EA022109B2B94A91801146A8
:10089000B1F9001000EE101AB8EEC00AB549D1ED5A
:1008A000000A80EE201AB049097801EB8101AF4AB5
:1008B00002EBC10181ED071AAD49B1F9021000EE5A
:1008C000101AB8EEC00AAB49D1ED000A80EE201A2A
:1008D000A549097801EB810102EBC10181ED081AFC
:1008E000A349B1F9041000EE101AB8EEC00AA149EC
:1008F000D1ED000A80EE201A9B49097801EB8101B5
:1009000002EBC10181ED091A9749097801EB8101D8
:1009100002EBC10191ED070ADFED970AB4EEE00AA0
:10092000F1EE10FA2BDD95498F4A1278895C31B3CC
:1009300000BF9349098801F040010029F9D08A4994
:10094000097801EB8101894A32F831108C4A918093
:10095000002100E037E0894A834B1B78D15482495B
:100960000978012902D10021864A11607E4909785F
:10097000022903D10021834A121D1160E8E07A495F
:10098000097801EB8101794A02EBC10191ED070A77
:10099000DFED790AB4EEE00AF1EE10FAEED80122AA
:1009A0007649714B1B78CA546F490978012901D1E6
:1009B000744A11606C4909780229DFD10121714A1A
:1009C000121D1160C4E06849097801EB8101674A92
:1009D00002EBC1014988342958D161490979604A3B
:1009E000D27841EA022109B2674A11805C498979CB
:1009F0005B4A527941EA022109B2634A518058495F
:100A0000097A574AD27941EA022109B25E4A9180B5
:100A10001146B1F9001000EE101AB8EEC00A5B4999
:100A2000D1ED000A80EE201A4F49097801EB8101CF
:100A30004E4A02EBC10181ED011A5349B1F902108E
:100A400000EE101AB8EEC00A5049D1ED000A80EE4F
:100A5000201A4549097801EB810102EBC10181EDC2
:100A6000021A4949B1F9041000EE101AB8EEC00A92
:100A70004649D1ED000A80EE201A3B49097801EB86
:100A8000810102EBC10181ED031A61E03649097869
:100A900001EB8101354A02EBC1014988372957D161
:100AA0002F4909792E4AD27841EA022109B2384AFF
:100AB00011802B4989792A4A527941EA022109B2E7
:100AC000334A51802649097A254AD27941EA0221DE
:100AD00009B22F4A91801146B1F9001000EE101AA8
:100AE000B8EEC00A2B49D1ED000A80EE201A1E494B
:100AF000097801EB81011D4A02EBC10181ED041A65
:100B00002349B1F9021000EE101AB8EEC00A2149CB
:100B1000D1ED000A80EE201A1349097801EB81011A
:100B200002EBC10181ED051A1949B1F9041000EE7B
:100B3000101AB8EEC00A1749D1ED000A80EE201A4B
:100B40000949097801EB810102EBC10181ED061A27
:100B50000021024A117000BF3CE60000580200204C
:100B6000E404002059020020680200206C040020E8
:100B700020000020640200200000DC426902002006
:100B800000100140A4824242100000205C020020BC
:100B9000180000206002002030B5CC1000F12003C6
:100BA00053F824304C07E50E0F24AC40A343CD107E
:100BB00000F1200444F82530CC1000F1200353F854
:100BC00024304C07E40E02FA04F42343CD1000F164
:100BD000200444F8253030BD2DE9F0470C46DDE90E
:100BE0000867002100258C4600BF60E04FF0010837
:100BF00008FA01F504EA050CAC4557D1D0F800809D
:100C00004FEA410A4FF0030909FA0AF928EA0908EC
:100C1000C0F80080D0F800804FEA410902FA09F9D3
:100C200048EA0908C0F80080012A01D0022A27D129
:100C3000D0F808804FEA410A4FF0030909FA0AF98F
:100C400028EA0908C0F80880D0F808804FEA41096E
:100C500006FA09F948EA0908C0F80880D0F80490B3
:100C60004FF0010808FA01F829EA0809C0F80490D1
:100C7000D0F8048003FA01F948EA0908C0F80480B2
:100C8000D0F80C804FEA410A4FF0030909FA0AF93B
:100C900028EA0908C0F80C80D0F80C804FEA410916
:100CA00007FA09F948EA0908C0F80C80491C10291C
:100CB0009CD3BDE8F08700001CB50B48006840F0ED
:100CC0002000094908600120032100230246CDE9E4
:100CD000001049020548FFF77FFF01200449086022
:100CE0000449C1F8A8021CBD30380240001402407B
:100CF000A4824242008042422DE9F04107468846E4
:100D000014461D46284600F033F8C5F1040007FAE2
:100D100000F60F20284100EA0800064306F00F06FF
:100D2000E21704EBD2625211920002F1E022D2F8F3
:100D300000212146E31704EBD3635B11A4EB431CB2
:100D4000012303FA0CF31A432046E31704EBD363A1
:100D50005B119B0003F1E023C3F800210348005D11
:100D600040EA061001490855BDE8F08100E400E0C2
:100D70000146072323EA01021202054B18684FF6C9
:100D8000FF031840034B18431043014B1860704792
:100D90000CED00E00000FA054A0A52020243014B42
:100DA0001A60704708ED00E02DE9FC5F06468B46AF
:100DB000174698464FF000090025002400BF10E0B8
:100DC0002F48405DB0420AD105EB85002D4921F83E
:100DD000306005EB850001EBC000478003E0681C34
:100DE000C5B2032DECDB00BFF2B22046611CCCB2D1
:100DF0000DF800200BF0FF022046611CCCB20DF86C
:100E000000203802C2B22046611CCCB20DF800208E
:100E1000FAB22046611CCCB20DF800204FEA08203F
:100E2000C2B22046611CCCB20DF8002008F0FF02CF
:100E30002046611CCCB20DF8002021466846FFF721
:100E4000A3FC0FFA80FA0AF0FF022046611CCCB224
:100E50000DF80020CAF307222046611CCCB20DF821
:100E600000204FF0000907E01DF8090000F0EBFA40
:100E700009F1010000F0FF09A145F5DDBDE8FC9F87
:100E8000500000206C040020F0B52DED028B83B0E3
:100E900005460E46434905FB01F000EE100AF8EE48
:100EA000400A300100EE100AB8EE400A80EE801AC7
:100EB000B0EE418ABCEEC80A10EE100A84B200EE11
:100EC000104AB8EE400A38EE400AF3EE000A20EE6F
:100ED000200ABCEEC00A10EE107A4FF6FF7000EA4E
:100EE0000414E01984B23048006840F001002E4933
:100EF00008600846006840F04000086001200321B7
:100F000000230246CDE9001001022848FFF764FEE5
:100F10000120022100230A46CDE900100C212448BB
:100F2000FFF75AFE072202212148FFF735FE07226C
:100F300003211F48FFF730FE1B481030006840F4C3
:100F4000003019491031086017481038006840F423
:100F500000301549103908600846006820F4003058
:100F6000086014480480001D008842F20C01084308
:100F70001049091D08800846008840F004000880D8
:100F80000846008840F02000088002232622032122
:100F90000846FFF7B1FE00200749086003B0BDEC2A
:100FA000028BF0BD40420F00303802400018024072
:100FB0000000024008440040A002434210B502462F
:100FC0000123104C236000200CE000BF0E4B1B8857
:100FD00003F04003002BF9D0135C0B4C241D23803D
:100FE000431CD8B28842F0DB00BF074B1B8803F0DC
:100FF0004003002BF9D00023044C2370014C2360E4
:1010000010BD0000A0024342004400400600002042
:10101000F0B504460D4616461F461448006840F0D9
:1010200001001249086000201049083108600F488B
:1010300000680F4908400D4908600E48091D086006
:10104000081F006820F48020091F0860002007495D
:101050000C3108603B4632462946204600F00CF829
:1010600000210846FFF798FEF0BD0000003802405E
:10107000FFFFF6FE10300024F0B504460D460021B7
:1010800000203D4E366846F480363B4F3E6001E01E
:101090004E1CB1B2384E366806F400361EB941F621
:1010A000FF76B142F4DB41F6FF76B14201D1012077
:1010B00060E0314E4036366846F080562E4F40375D
:1010C0003E602E4E366846F440462C4F3E602A4E17
:1010D0000836366846F41446274F08373E60264ED9
:1010E000366826F08076244F3E6045EA8416012754
:1010F000C7EB520746EA074646EA036646F480060F
:101100001D4F3F1D3E603E1F366846F080763F1FF4
:101110003E6000BF184E366806F00076002EF9D00B
:10112000174E366846F48076154F3E603E46366868
:1011300046F400763E603E46366846F480663E6081
:101140003E46366846F005063E600B4E0836366869
:1011500026F00306084F08373E603E46366846F0E4
:1011600002063E6000BF044E0836366806F00C06E4
:10117000082EF8D1F0BD0000003802400070004099
:10118000003C024010B50C48008800F0010058B146
:101190000A490869804700200749143108604FF464
:1011A0007A7005491C3108600348008820F001006E
:1011B0000149088010BD000010080040B002002066
:1011C00070B505460C461048006840F004000E4912
:1011D00008600E480560001F04800C482038008815
:1011E00040F0010009492039088008482C3800885F
:1011F00040F0010005492C39088002231E220321FA
:101200000846FFF779FD70BD403802402C080040C9
:101210001C49098801F0200109B31A498988C8B21C
:101220001949098801F40041C9B91749098801F42D
:10123000804161B10A2803D00021134A118020E0C7
:101240001149098841F400410F4A118019E00D2825
:1012500006D10D49098841F480410B4A118010E004
:1012600009490988C1F30D01084A50540649098803
:10127000491C054A118011460988C72901DD002152
:10128000118070470010014004000020A4030020DA
:1012900010B50648008800F0200030B10348001D5A
:1012A0000088C4B22046FFF789FA10BD0044004010
:1012B00030380A2801D2012070470020704700BF53
:1012C000704700004FF0E021096921F004014FF060
:1012D000E0221161C21700EB5272C2F3C702074B42
:1012E0001A701946097801EB4102C2EBC1114FF6A1
:1012F000FF7202EAC101024A11807047000000201B
:101300000200002070B504464FF4077094FBF0F023
:10131000C6B24FF4077094FBF0F100FB114085B2A8
:1013200005E04FF4077000F027F8701EC6B2002EDB
:10133000F7D115B1284600F01FF870BD01460D4ADF
:1013400012784A434FF0E0235A6100229A61012249
:101350001A6100BF4FF0E022106900F001021AB1DB
:1013600000F48032002AF5D000224FF0E0231A6109
:101370009A6170470000002001460D4A12884A43D6
:101380004FF0E0235A6100229A6101221A6100BFE6
:101390004FF0E022106900F001021AB100F480322F
:1013A000002AF5D000224FF0E0231A619A617047BD
:1013B0000200002000BF054A128802F04002002A05
:1013C000F9D0C2B2014B9A80704700000010014072
:1013D0000723022208214FF4A870FFF719FEA82066
:1013E000FFF770FF4FF46121542000F033F8FFF74E
:1013F00063FC4FF4E1312A20FFF746FD1DE00F4961
:10140000087803233D221946FFF7CEFC0320FFF79F
:1014100079FF0A49487803233D221946FFF7C4FCA7
:101420000320FFF76FFF0549887803233D22194603
:10143000FFF7BAFC0320FFF765FFE0E7500000204C
:1014400001460868704701B501216846FFF7B6FDFF
:1014500008BD0000F0B52DED028B83B005460E46A9
:10146000384905FB01F000EE100AF8EE400A3001A1
:1014700000EE100AB8EE400A80EE801AB0EE418A03
:10148000BCEEC80A10EE100A84B200EE104AB8EEA4
:10149000400A38EE400AF3EE000A20EE200ABCEEC5
:1014A000C00A10EE107A4FF6FF7000EA0414E0193B
:1014B00084B22548006840F00100234908602248B2
:1014C0001430006840F010001F49143108600120FA
:1014D000022100230A46CDE900104FF4C0611B48E9
:1014E000FFF77AFB072209211848FFF755FB07226F
:1014F0000A211648FFF750FB15480481808920F423
:101500000040134988810846808940F0080088819E
:101510000846808940F0040088810846808940F0B0
:10152000200088810223252203210846FFF7E4FBDF
:101530000748808940F400500549888103B0BDEC1C
:10154000028BF0BD40420F003038024000000240E4
:101550000010014030B595B0054613AB12AA09A999
:10156000284600F03FFA044614B1204615B030BDBD
:101570000020149026E0224909689DF8502001EBD4
:10158000C20113AB11AA486801A900F02BFA044666
:101590000CB12046EAE709A901A800F0DDFC60B91A
:1015A0009DF844009DF84810884201DD0220DDE7E7
:1015B0009DF85000124988750AE09DF85000401CC3
:1015C000C0B214900E48007D9DF850108842D2DCC5
:1015D00000BF0B48007D9DF85010884201D10420C7
:1015E000C4E714A9284600F0DDFA04460CB12046F1
:1015F000BCE79DF85000024948750020B6E700009E
:10160000B00200202DE9F0419AB09C48847D007D15
:10161000A04202DC1AB0BDE8F0819849096801EBEC
:10162000C40106AB07AA486808A900F0DBF908A9BD
:1016300093A0FEF74DFE002644E09048008B012168
:10164000B1400840D8B122218FA0FEF741FE3046BC
:1016500000F02EFB89492431471839468BA0FEF74C
:1016600037FE222188A0FEF733FE304600F020FB33
:1016700082492431084410A941F8260018E0304678
:1016800000F016FB7D492431085810A941F82600C6
:101690007A48C07D30B910A850F826107CA0FEF71B
:1016A00017FE05E010A850F826107AA0FEF710FEED
:1016B0009DF81C00401EB04202D078A0FEF708FE44
:1016C000701CC6B29DF81C008642B6DB74A0FEF703
:1016D000FFFD00F03DFB6948407D0B280DD2DFE89F
:1016E00000F0060D151E27323F4E5F7287006349DA
:1016F000096851F834008047054690E05F4A126857
:1017000052F8341010988847054688E05B4B1B68F8
:1017100053F83420DDE91001904705467FE0574F2C
:101720003F6857F8343010A807C89847054676E058
:10173000DFF848C1DCF800C05CF8347010A80FC8AE
:10174000B84705466BE01498DFF830C10090DCF82C
:1017500000C05CF8347010A80FC8B84705465EE0BA
:10176000DDE91401DFF814C1CDE90001DCF800C0A7
:101770005CF8347010A80FC8B84705464FE0DDE9A3
:1017800014121698DFF8F4C0CDE900120290DCF8CC
:1017900000C05CF8347010A80FC8B84705463EE09A
:1017A000DDE91423DDE91610DFF8D0C0CDE9002310
:1017B000CDE90210DCF800C05CF8347010A80FC846
:1017C000B84705462BE0DDE91523DDE91710CDE923
:1017D0000123CDE903101498DFF8A0C00090DCF8D5
:1017E00000C05CF8347010A80FC8B847054616E072
:1017F000DDE91623DDE91810CDE90223CDE9041057
:10180000DDE91401DFF874C0CDE90001DCF800C0A7
:101810005CF8347010A80FC8B847054600BF00BF79
:1018200000F056FA9DF8180001280CD11348C07D2D
:1018300020B929461BA0FEF74BFD07E029461BA057
:10184000FEF746FD02E018A0FEF742FD0B4890F8B7
:10185000EC0088B10948D0F8F0000A21B0FBF1F2A1
:1018600001FB12070548D0F8F000B0FBF1F83A464A
:10187000414611A0FEF72CFD00BFCBE6B0020020D0
:101880000D0A257328000000256300002573000061
:10189000256C640030582558000000002C00000022
:1018A000290000003D256C753B0D0A003D30582590
:1018B000583B0D0A0000000046756E6374696F6E38
:1018C0002052756E2054696D653A25642E25316469
:1018D0006D730D0A00000000F0B5034615460020A8
:1018E0000022002600245BE01F782C2F01D104B9D0
:1018F00001221F78292F01D01F780FB904B950E0B9
:10190000002E3AD11F78302F02DB1F78392F17DDD8
:101910001F782D2F14D01F782B2F11D01F78612FF7
:1019200002DB1F78662F0BDD1F78412F02DB1F784B
:10193000462F05DD1F78582F02D01F78782F0CD145
:1019400002B12EE01F78612F03DB1F78203F0F705C
:1019500001E01F780F70491C1FE01F78222F04D16F
:1019600002B11EE00126012417E01F78202F14D0B9
:101970001F782C2F11D0FF2613E01F78222F00D1C3
:10198000002402B10DE044B11F785C2F02D15B1C32
:10199000471CF8B21F780F70491C471CF8B25B1C3B
:1019A000A2E700BF00270F702E70F0BD10B50446EF
:1019B000002010700BE020780870641C491C10781F
:1019C000401C10701078984201DB012010BD207877
:1019D000202802D020780028EDD10020087000BF18
:1019E000F4E700002DE9FF4F85B0804689460027C7
:1019F000002004900390012002904FF0000B00257E
:101A000044461DE02078202816D005F07F000528E8
:101A100012DA0DB945F0800505F07F00042803D1E6
:101A200020782A2800D00EE0207805F07F010DF8FC
:101A30000100681CC5B202E0852D00D103E0641CE2
:101A400020780028DED100BF8DB1002005F07F0195
:101A50000DF8010051A1684600F07EFA18B9002186
:101A60000898017002E001210898017000254FF0EC
:101A7000000A444614E0641C0AF1010000F0FF0A69
:101A80002078202802D020782A2809D1204600F08A
:101A9000D5F90646282E03D02A2E01D0CDF810A065
:101AA0002078282802D020780028E4D144460498E1
:101AB00010B10498401C04444FF0000A002654E082
:101AC000207810B94FF0010A50E02078282803D17F
:101AD00016B9781CC7B213E02078292808D13EB97E
:101AE00017B1781EC7B201E04FF0010A47B93DE0D7
:101AF0002078222804D10EB9012000E000200646FB
:101B000047B9207820282FD0207889F8000009F1E3
:101B1000010929E020782C2804D101200290681CBA
:101B2000C5B214E02078202811D0207828280ED0C3
:101B30004DB9BBF1050F06DA20780DF80B000BF15B
:101B4000010000F0FF0B0298401CC0B20290012F70
:101B50000AD10298022807D10298401CC0B2029014
:101B60000398401CC0B20390641CA9E700BF03980F
:101B7000012809D100200DF80B0008A1684600F0EB
:101B8000EBF908B90020039007990398087000202A
:101B900089F80000504609B0BDE8F08F766F69649F
:101BA000000000002DE9F043B5B005460F460024C3
:101BB000002604E000213D488155701CC6B20A2E63
:101BC000F8DB06E06D1C287818B9012035B0BDE8B7
:101BD000F08328782828F5D16D1C61E034AA694685
:101BE0002846FFF779FE064635449DF8D00020B11F
:101BF000012827D0FF284CD149E09DF8000000B310
:101C000033A9684600F025F906460EB10220DDE74B
:101C1000204600F04DF825490A31339A0A50A1F1C7
:101C20002400008B0121A140884320491A390883F0
:101C300004211E480155601CC4B20A2C01DD03209A
:101C4000C4E726E0684600F0A3F9401C00F0FF0856
:101C5000204600F02DF815490A3100EB01094946EC
:101C6000684600F08AF911481A38018B0120A0401B
:101C7000014388B20D491A3908830C4800F80480E2
:101C8000601CC4B20A2C01DD03209FE701E00220A2
:101C90009CE700BF2878292801D0287800B900E007
:101CA0009CE700BF3C70002090E70000CA020020C3
:101CB00002460020002105E0044B5B5C0344D8B2DF
:101CC0004B1CD9B29142F7DB70470000CA020020DA
:101CD0000D48008800F0010040B10C48D0F8F00039
:101CE0004FF6FF7108440949C1F8F0000748D0F8E1
:101CF000F00005491431096808440449C1F8F000AE
:101D00000846D0F8F000704710080040B0020020EC
:101D100010B5044604EBC40000EB04100122C2EB32
:101D2000800081B24FF47A70FFF74AFA012001492E
:101D3000C87510BDB002002010B50246012000E0B9
:101D400050430B1EA1F10104E1B2F9D110BD000016
:101D50000948008820F00100074908804FF6FF700D
:101D600005491C310860002003491431086003490B
:101D7000C1F8F0007047000010080040B0020020D9
:101D800070B51D48008800F40040002833D01A4880
:101D9000057800201949485519488168174888472F
:101DA00004461CB91649C868804721E0134800F072
:101DB000FBF80546012D00D02C46CCB1012C06D0F5
:101DC000022C08D0032C0AD0042C10D10BE00DA05B
:101DD000FEF77EFA0BE00EA0FEF77AFA07E00FA0FE
:101DE000FEF776FA03E010A0FEF772FA00BF00BF1C
:101DF00000200149088070BD04000020A4030020D9
:101E0000B0020020BAAFCAFDB4EDCEF3210D0A0036
:101E1000B2CECAFDB4EDCEF3210D0A00B2CECAFD9A
:101E2000CCABB6E0210D0A00CEB4D5D2B5BDC6A567
:101E3000C5E4B5C4BAAFCAFD210D0A000146491C6C
:101E400000E0491C0878202801D10029F9D1087840
:101E500070472DE9F04F05460F4600264FF00A095E
:101E6000B3462C460020386034E02078392802DC64
:101E70002078302811DA28782D2802D028782B28CD
:101E800000D156B12078462802DC2078412804DAB7
:101E90002078582817D1012E15D12078412801DB50
:101EA0004FF0100928782D2803D14FF0020B6D1C3C
:101EB0000FE028782B2803D14FF0010B6D1C08E0B0
:101EC000701CC6B205E0207800B904E00120BDE82E
:101ED000F08F641CC9E700BF2C46B9F1100F0FD179
:101EE000032E01DA0220F2E72078302806D160784C
:101EF000582803D1A41CB01EC6B204E00320E6E7B4
:101F00000EB90420E3E71BE00EB1701EC6B22078C4
:101F1000392806DC2078302803DB2078A0F1300A4D
:101F200002E02078A0F1370A31464846FFF704FF67
:101F300039680AFB00103860641C207800B900E0A2
:101F4000E2E700BFBBF1020F04D13868C0F100081E
:101F5000C7F800800020BAE702460AE010780B7844
:101F6000984201D001207047107800B902E0521C5D
:101F7000491CF3E700BF0020F5E706E002780A708D
:101F8000027802B902E0401C491CF7E700BF704725
:101F90000146002005E00A7802B903E0421CD0B2F5
:101FA000491CF8E700BF704710B58CB004461E23EB
:101FB0000BAA03A92046FFF7F9FC0090009810B186
:101FC00001200CB010BD9DF82C00044400200B90A3
:101FD0000EE040489DF82C2050F8221003A8FFF78F
:101FE000BBFF00B908E09DF82C00401CC0B20B906C
:101FF0009DF82C000728ECD300BF9DF82C00072883
:1020000063D2DFE800F004053C5E6564630000BF56
:1020100031A0FEF75DF931A0FEF75AF93FA0FEF7B7
:1020200057F94EA0FEF754F95CA0FEF751F96BA0EA
:10203000FEF74EF979A0FEF74BF987A0FEF748F9B5
:102040008CA0FEF745F994A0FEF742F998A0FEF7A0
:102050003FF99DA0FEF73CF9A2A0FEF739F9A8A030
:10206000FEF736F9B4A0FEF733F9C1A0FEF730F958
:10207000CCA0FEF72DF9D8A0FEF72AF9A2E216A00F
:10208000FEF726F9E4A0FEF723F900200B900EE0FE
:10209000F14800689DF82C2000EBC2004168EFA0D9
:1020A000FEF716F99DF82C00401CC0B20B90EA48D0
:1020B000007D9DF82C108842EADC07A0FEF708F9A5
:1020C00080E205A0FEF704F9CCE179E24DE221E2DD
:1020D000F4E100006C0200200D0A00002D2D2D2DD2
:1020E0002D2D2D2D2D2D2D2D2D2D2D2D2D2D2D2D20
:1020F0002D2D2D2D55534D4152542056332E322D1A
:102100002D2D2D2D2D2D2D2D2D2D2D2D2D2D2D2DFF
:102110002D2D2D2D2D2D2D200D0A000020202020CD
:1021200055534D415254CAC7D3C9414C49454E54E9
:10213000454BBFAAB7A2B5C4D2BBB8F6C1E9C7C95F
:10214000B5C4B4AEBFDAB5F7CAD4BBA5BDBBD7E939
:10215000BCFE2CCDA8B9FD200D0A0000CBFC2CC480
:10216000E3BFC9D2D4CDA8B9FDB4AEBFDAD6FACA9E
:10217000D6B5F7D3C3B3CCD0F2C0EFC3E6B5C4C86D
:10218000CEBACEBAAFCAFD2CB2A2D6B4D0D02ED21F
:10219000F2B4CB2CC4E3BFC90D0A0000D2D4CBE605
:1021A000D2E2B8FCB8C4BAAFCAFDB5C4CAE4C8EB41
:1021B000B2CECAFD28D6A7B3D6CAFDD7D6283130AD
:1021C0002F3136BDF8D6C62CD6A7B3D6B8BACAFDBD
:1021D00029A1A2D7D6B7FBB4AE0D0A00A1A2BAAF0F
:1021E000CAFDC8EBBFDAB5D8D6B7B5C8D7F7CEAAFF
:1021F000B2CECAFD292CB5A5B8F6BAAFCAFDD7EE46
:10220000B6E0D6A7B3D63130B8F6CAE4C8EBB2CE42
:10221000CAFD2CB2A2D6A7B3D60D0A00BAAFCAFD2A
:10222000B7B5BBD8D6B5CFD4CABE2ED6A7B3D6B213
:10223000CECAFDCFD4CABEBDF8D6C6C9E8D6C3B98A
:10224000A6C4DC2CD6A7B3D6BDF8D6C6D7AABBBBCE
:10225000B9A6C4DC2E0D0A00BCBCCAF5D6A7B3D6FD
:102260003A7777772E6F70656E6564762E636F6D43
:102270000D0A000055534D415254D3D037B8F6CF14
:10228000B5CDB3C3FCC1EE28B1D8D0EBD0A1D0B44A
:10229000293A0D0A000000003F3A2020202020208B
:1022A000BBF1C8A1B0EFD6FAD0C5CFA20D0A00008D
:1022B00068656C703A202020BBF1C8A1B0EFD6FA57
:1022C000D0C5CFA20D0A00006C6973743A2020209B
:1022D000BFC9D3C3B5C4BAAFCAFDC1D0B1ED0D0AF1
:1022E0000A00000069643A2020202020BFC9D3C31F
:1022F000BAAFCAFDB5C44944C1D0B1ED0D0A0A0058
:102300006865783A20202020B2CECAFD3136BDF86B
:10231000D6C6CFD4CABE2CBAF3B8FABFD5B8F12B03
:10232000CAFDD7D6BCB4D6B4D0D0BDF8D6C6D7AACD
:10233000BBBB0D0A0A0000006465633A2020202020
:10234000B2CECAFD3130BDF8D6C6CFD4CABE2CBA83
:10235000F3B8FABFD5B8F12BCAFDD7D6BCB4D6B402
:10236000D0D0BDF8D6C6D7AABBBB0D0A0A00000064
:1023700072756E74696D653A312CBFAAC6F4BAAF36
:10238000CAFDD4CBD0D0BCC6CAB13B302CB9D8B171
:10239000D5BAAFCAFDD4CBD0D0BCC6CAB13B0D0AAA
:1023A0000A000000C7EBB0B4D5D5B3CCD0F2B1E091
:1023B000D0B4B8F1CABDCAE4C8EBBAAFCAFDC3FB1A
:1023C000BCB0B2CECAFDB2A2D2D4BBD8B3B5BCFCAD
:1023D000BDE1CAF82E0D0A002D2D2D2D2D2D2D2DF0
:1023E0002D2D2D2D2D2D2D2D2D2D2D2D2D2D2D2D1D
:1023F0002D2D414C49454E54454B2D2D2D2D2D2D28
:102400002D2D2D2D2D2D2D2D2D2D2D2D2D2D2D2DFC
:102410002D2D2D200D0A00002D2D2D2D2D2D2D2D96
:102420002D2D2D2D2D2D2D2D2D2D2D2D2D2D2D2DDC
:102430002DBAAFCAFDC7E5B5A52D2D2D2D2D2D2DFE
:102440002D2D2D2D2D2D2D2D2D2D2D2D2D2D2D2DBC
:102450002D2D2D2D200D0A00B002002025730D0A10
:102460000000000059A0FDF733FF00200B901AE098
:10247000664909689DF82C2001EBC20101AB02AA54
:10248000486803A9FFF7AEFA604800689DF82C1071
:1024900050F8312003A95EA0FDF71AFF9DF82C002B
:1024A000401CC0B20B905948007D9DF82C1088420A
:1024B000DEDCAFF2DC30FDF70BFF83E0AFF2E8309B
:1024C000FDF706FF0BAA03A92046FFF705FA9DF8C2
:1024D0002C00C8B9694603A8FFF7BBFC0B909DF818
:1024E0002C0020B94FA00099FDF7F2FE0EE09DF8F8
:1024F0002C00042801D0022063E54DA0FDF7E8FE82
:1025000001204249C87501E002205AE547A0FDF7C5
:10251000DFFE57E045A0FDF7DBFE0BAA03A920462E
:10252000FFF7DAF99DF82C00C8B9694603A8FFF750
:1025300090FC0B909DF82C0020B942A00099FDF76B
:10254000C7FE0EE09DF82C00042801D0022038E5DB
:102550003FA0FDF7BDFE00202C49C87501E0022018
:102560002FE532A0FDF7B4FE2CE030A0FDF7B0FE61
:102570000BAA03A92046FFF7AFF99DF82C00C8B9B4
:10258000694603A8FFF765FC0B909DF82C0078B90D
:102590001E49009881F8EC00084690F8EC0018B14C
:1025A00030A0FDF795FE07E035A0FDF791FE03E0B2
:1025B000022006E5022004E51CA0FDF789FE01E0EB
:1025C0000120FEE400BF0020FBE400002D2D2D2D96
:1025D0002D2D2D2D2D2D2D2D2D2D2D2D2D2D2D2D2B
:1025E0002D2D2D2D2DBAAFCAFD204944202D2D2D86
:1025F0002D2D2D2D2D2D2D2D2D2D2D2D2D2D2D2D0B
:102600002D2D2D2D2D2D2D2D200D0A00B002002059
:1026100025732069642069733A0D0A3058253038D3
:10262000580D0A004845583A305825580D0A000000
:102630003136BDF8D6C6B2CECAFDCFD4CABE210D42
:102640000A0000004445433A256C750D0A0000005D
:102650003130BDF8D6C6B2CECAFDCFD4CABE210D28
:102660000A00000052756E2054696D652043616C4C
:1026700063756C6174696F6E204F4E0D0A00000027
:1026800052756E2054696D652043616C63756C6191
:1026900074696F6E204F46460D0A00000160704756
:1026A0004FF04070E1EE100A70473031323334356C
:1026B000363738394142434445464030580030317E
:1026C0003233343536373839616263646566403099
:1026D0007800040000080000000000000002000173
:1026E000000010003F0000006465630069640000A2
:1026F00072756E74696D650068656C70000000002D
:102700006C6973740000000068657800766F696416
:102710002077726974655F61646472287533322052
:10272000616464722C7533322076616C290000007C
:10273000766F69642052533438355F53656E645F39
:1027400044617461287538202A6275662C753820BA
:102750006C656E290000000075333220726561647B
:102760005F61646472287533322061646472290089
:10277000766F69642064656C61795F6D732875316B
:1027800036206E6D73290000766F69642064656C75
:1027900061795F757328753332206E757329000077
:1027A000C027000800000020A4030000C4010008A6
:1027B00048290008A4030020AC05000020020008FE
:1027C0000150145051522808C1814001C080410479
:1027D000690C2908E918A91C091A300916380936A4
:1027E00060092E70092F6000FF00C0C101C3030201
:1027F000C2C60607C705C5C404CC0C0DCD0FCFCE8D
:102800000E0ACACB0BC90908C8D81819D91BDBDABC
:102810001A1EDEDF1FDD1D1CDC14D4D515D71716DC
:10282000D6D21213D311D1D010F03031F133F3F2EC
:102830003236F6F737F53534F43CFCFD3DFF3F3ECC
:10284000FEFA3A3BFB39F9F83828E8E929EB2B2A5C
:10285000EAEE2E2FEF2DEDEC2CE42425E527E7E61C
:102860002622E2E323E12120E0A06061A163A3A28C
:102870006266A6A767A56564A46CACAD6DAF6F6E0C
:10288000AEAA6A6BAB69A9A86878B8B979BB7B7A3C
:10289000BABE7E7FBF7DBDBC7CB47475B577B7B65C
:1028A0007672B2B373B17170B0509091519353522C
:1028B0009296565797559594549C5C5D9D5F9F9E4C
:1028C0005E5A9A9B5B99595898884849894B8B8ADC
:1028D0004A4E8E8F4F8D4D4C8C448485458747469C
:1028E00086824243834181809240400DE1FA504309
:1028F0006F1283413D0A364313E4261B08F8041186
:1029000012271B08EC081A08081AE8081AF0041322
:1029100041141B0858101A9D0C1A0C081305131BA0
:102920000870081A3D081A880813BD0F1B083008E4
:102930001388021420111D1C0855152412161B089B
:08294000810C220502DC0100FC
:040000050800018965
:00000001FF
