:020000040800F2
:10000000300A0020890200089702000899020008BF
:100010009B0200089D0200089F02000800000000EB
:10002000000000000000000000000000A102000825
:10003000A302000800000000A5020008A7020008B3
:10004000A9020008A9020008A9020008A9020008E4
:10005000A9020008A9020008A9020008A9020008D4
:10006000A9020008A9020008A9020008A9020008C4
:10007000A9020008A9020008A9020008A9020008B4
:10008000A9020008A9020008A9020008A9020008A4
:10009000A9020008A9020008A9020008A902000894
:1000A000A9020008A9020008A9020008A902000884
:1000B000A9020008A9020008ED160008A90200081C
:1000C000A9020008A9020008A9020008A902000864
:1000D000A902000879170008F9170008A90200080A
:1000E000A9020008A9020008A9020008A902000844
:1000F000A9020008A9020008A9020008A902000834
:10010000A9020008A9020008A9020008A902000823
:10011000A9020008A9020008A9020008A902000813
:10012000A9020008A9020008A9020008A902000803
:10013000A9020008A9020008A9020008A9020008F3
:10014000A9020008A9020008A9020008A9020008E3
:10015000A9020008A9020008A9020008A9020008D3
:10016000A9020008A9020008A9020008A9020008C3
:10017000A9020008A9020008A9020008A9020008B3
:10018000A9020008A902000800F002F800F06DF8CA
:100190000AA090E8000C82448344AAF10107DA45E2
:1001A00001D100F062F8AFF2090EBAE80F0013F0C7
:1001B000010F18BFFB1A43F001031847E832000093
:1001C000083300000A444FF0000C10F8013B13F014
:1001D000070408BF10F8014B1D1108BF10F8015BA0
:1001E000641E05D010F8016B641E01F8016BF9D193
:1001F00013F0080F1EBF10F8014BAD1C0C1B09D1EA
:100200006D1E58BF01F801CBFAD505E014F8016B5B
:1002100001F8016B6D1EF9D59142D6D370470000ED
:100220000023002400250026103A28BF78C1FBD8FF
:10023000520728BF30C148BF0B607047642900F0E7
:10024000A380752900F0A080782900F0D980632967
:1002500000F05482732900F05982002070471FB5C6
:1002600003F09BF81FBD10B510BD00F081FA1146D8
:10027000FFF7F5FF01F060FB00F09FFA03B4FFF712
:10028000F2FF03BC01F0CFFA0B48016841F47001A2
:1002900001600A480047FEE7FEE7FEE7FEE7FEE7EB
:1002A000FEE7FEE7FEE7FEE7FEE70000044805493B
:1002B000034A054B7047000088ED00E08901000803
:1002C00030060020300A0020300600207047000071
:1002D0000FB4044910B503AA029800F01BFA10BC31
:1002E0005DF814FB5802002070B50446856900686B
:1002F000C10601D5302600E02026C00707D070BD1A
:10030000D4E9012130469047206A401C20626D1ECE
:10031000F6D570BD70B5044685690078C00707D171
:1003200070BDD4E9012120209047206A401C206242
:100330006D1EF6D570BD70B50C460546012A05D078
:100340002878800600D5EA69002302E0012305E051
:100350005B1C934202D2E05C0028F9D1A869E61840
:10036000C01AA861286A184428622846FFF7BCFF13
:1003700004E0D5E9012114F8010B9047B442F8D309
:100380002846FFF7C7FF70BD2DE9F041064600245F
:1003900010687529314616A510D0AFF300800028EB
:1003A00002DA404213A507E031688A0701D512A599
:1003B00002E0490704D511A5012401E0AFF3008054
:1003C00000210A2206F1240709E0B0FBF2FCB0FB91
:1003D000F2F302FB1C00303078541846491C002808
:1003E000F3D123462A463046BDE8F04100F023B958
:1003F000000000002D0000002B0000002000000085
:1004000070B504460D4621461068AFF30080218880
:10041000090502D50F4A7A4402E00E4A7A440E32A8
:10042000002104F1240305E000F00F060009965DA9
:100430005E54491C0028F7D120780023000704D51A
:10044000702D02D009B1022311322046BDE8704060
:1004500000F0F1B8942F00002DE9F05F89460446C2
:100460004FF0000ADFF874B1FB44C0F820A020462A
:10047000E1688847002874D0252806D0D4E90121F6
:100480009047206A401C2062F1E700265F46204624
:10049000E16888472028054607DB312D05D2781909
:1004A00010F8200C08B10643F1E7B00701D526F09B
:1004B0000406C4F81CA00027C4F818A02A2D09D0EF
:1004C000284601F0A9F938B304EB8708303DC8F895
:1004D000185019E059F8041B204604EB870291617B
:1004E000E1688847012F054618D1E069002820DA25
:1004F00026F020061DE0D8F8180000EB800005EB80
:1005000040003038C8F818002046E16888470546A2
:1005100001F082F90028EED1012F0AD02E2D08D14A
:100520002046E16888477F1C0546022F46F02006DA
:10053000C4DBA069002803DA404246F00106A0614E
:10054000F00701D026F010066C2D0BD0682D09D0D5
:100550004C2D39D06A2D35D0742D35D07A2D33D02D
:1005600016E038E0E1682F4620468847B842054645
:1005700009D16C2F26D04FF48060E16806432046F5
:100580008847054604E06C2F1AD04FF4807006436C
:100590000DB3A5F14100192802D8203546F40066B4
:1005A0004A462946204626604E46FFF747FE80B160
:1005B00001280BD0F61D26F0070000F1080956E7C8
:1005C0004020E4E78020D8E70020D6E706F10409C0
:1005D0004DE7284652E7206ABDE8F09F6A2F0000E9
:1005E0004FF0000200B5134694469646203922BFCC
:1005F000A0E80C50A0E80C50B1F12001BFF4F7AF17
:10060000090728BFA0E80C5048BF0CC05DF804EBF8
:10061000890028BF40F8042B08BF704748BF20F866
:10062000022B11F0804F18BF00F8012B7047704764
:100630007047704770472DE9F0470D46994692463E
:10064000044600F124080168880604D5E06921F019
:100650001001216000E00120A84201DD471B00E0FD
:100660000027A1697A1902EB0900081AA061207815
:10067000C00602D42046FFF737FE002608E0D4E982
:1006800001211AF806009047206A401C761C20625F
:100690004E45F4DB2078C0060AD52046FFF724FE3D
:1006A00006E0D4E9012130209047206A401C2062F6
:1006B000381EA7F10107F4DC07E0D4E9012118F89E
:1006C00005009047206A401C2062281EA5F1010504
:1006D000F3DC2046FFF71EFE2078000602D502203C
:1006E000BDE8F0870120FBE710B5436913B1AFF314
:1006F000008001E0FFF71FFE012010BD127800F11D
:1007000024010A7000224A700122EDE711684FF0BF
:10071000FF32E9E7074B70B50D467B4400F011F856
:100720000446284600F020F810B14FF0FF3070BDAD
:10073000204670BDFF11000001694A1C0261087863
:10074000704700B58FB0CDE9013100210591054911
:100750007944CDE9031011466846FFF77DFE0FB0DE
:1007600000BD0000E5FFFFFF007B00F08000704748
:10077000754600F02BF8AE4605006946534620F05A
:100780000700854618B020B5FFF790FDBDE8204072
:100790004FF000064FF000074FF000084FF0000B3D
:1007A00021F00701AC46ACE8C009ACE8C009ACE8F0
:1007B000C009ACE8C0098D46704710B50446AFF3D8
:1007C00000802046BDE81040FFF758BD0048704744
:1007D000D0050020F0B597B006460F4615465821C3
:1007E00001A8FFF7FDFE502D01DD17B0F0BD00217F
:1007F00001AAE81C1154AA208DF804008DF8050008
:100800008DF806608DF80750002405E0395D201D45
:1008100001AA1154601CC4B2AC42F7DB00240AE008
:1008200001A9281D085C095D0844C1B201AA281D60
:100830001154601CC4B2281D8442F1DB002405E081
:1008400001A9085D00F0BAFD601CC4B2681D8442B5
:10085000F6DB00BFC9E72DE9F04794B08246884631
:1008600014461F4650216846FFF7BAFE002512E0E5
:1008700004FB058900260AE009F10300801B0078CB
:10088000042101FB05610DF80100701CC6B2A642EF
:10089000F2DB681CC5B297FBF4F0A842E8DC3A46EC
:1008A00069465046FFF796FF14B0BDE8F087000098
:1008B00070B503460C46FF25FF26002209E0985C30
:1008C00080EA05010548405C80EA06050448465C6C
:1008D000521CA242F3DB46EA052070BD5600002000
:1008E000560100202DE9F0412DED0C8B0446FD480A
:1008F00001780078401CFB4A1070FB4844541046B5
:100900000078012803D1BDEC0C8BBDE8F081F548DF
:100910000078022807D1F4484078032802D000204C
:10092000F0490870EFE7EF480078032805D1EE485A
:100930008078401DED490870E5E7EA480078EB490A
:100940000978884200DADEE70020E949087010E003
:10095000E748007800EB8000E64931F83000E249D2
:100960000978884200D108E0E1480078401CE0495D
:100970000870DF4800780628EADB00BFDC48007812
:1009800000EB8000DB4901EBC00040883D287DD1B1
:10099000D5480079D449C97840EA012000B2D64947
:1009A0000880D1488079D049497940EA012000B2D5
:1009B000D1494880CC48007ACB49C97940EA012026
:1009C00000B2CD4988800846B0F9000000EE100A58
:1009D000B8EEC00AC948D0ED000A80EE201AC4481B
:1009E000007800EB8000C34901EBC00080ED071ADE
:1009F000C148B0F9020000EE100AB8EEC00ABF48C4
:100A0000D0ED000A80EE201AB948007800EB800093
:100A100001EBC00080ED081AB748B0F9040000EE01
:100A2000100AB8EEC00AB548D0ED000A80EE201AD0
:100A3000AF48007800EB800001EBC00080ED091AA0
:100A4000084690ED2F0AD0ED390AB4EEE00AF1EE37
:100A500010FA66DD90ED2C0AF3EE040AB4EEE00A1B
:100A6000F1EE10FA26DD90ED2F0ADFEDA50AB4EEC7
:100A7000E00AF1EE10FA1DDD90ED2F0ADFEDA10A7C
:100A8000B4EEE00AF1EE10FA14D200E052E19FED6C
:100A90009C0A9D4880ED080A9C4890ED000AF7EEFC
:100AA000000A30EE200A80ED000A9FED990A80EDE1
:100AB000010A11E09FED960A934880ED080A9348D9
:100AC00090ED010AF7EE000A30EE200A80ED010AEF
:100AD0009FED8F0A80ED000A8C4890ED000AF0EE41
:100AE000000AB4EE600AF1EE10FA08D1732000F0AB
:100AF00071FC9FED880A844880ED090A11E0834863
:100B000090ED010AF0EE000AB4EE600AF1EE10FA80
:100B100007D1652000F05EFC9FED7F0A7A4880EDEA
:100B2000090A7349097801EB8101724A02EBC1019C
:100B300091ED070A6E49097801EB810132F8310025
:100B400000EBD0714910A0EB41016F4A02EB81012B
:100B500081ED000A104690ED000AD0ED010A30EE5A
:100B6000600A80ED040A90ED040AB1EE400A80EDBF
:100B7000050A90ED040A6948D0ED000A30EE600ADB
:100B8000F1EE040A20EE200AD0ED000A90ED011AE1
:100B900070EEC10AB0EE081A00EE810AD0ED010A2B
:100BA00090ED021A70EEC10AB0EE001A00EE810A52
:100BB000104680ED060A90ED060AF2EE040AB4EE45
:100BC000E00AF1EE10FA09DD554890ED010AF7EE62
:100BD000000A30EE200A80ED010A21E04A4890ED3B
:100BE000060AFAEE040AB4EEE00AF1EE10FA0ED2AA
:100BF0004B4890ED000AF7EE000A30EE200A80ED37
:100C0000000AB7EE000A474880ED000A08E09FEDB1
:100C1000400A434880ED010A9FED3D0A80ED000A3D
:100C20003F4890ED010AF0EE080AB4EEE00AF1EE5A
:100C300010FA05DD9FED3C0A334880ED060A14E00A
:100C4000374890ED000AF0EE080AB4EEE00AF1EE43
:100C500010FA05DD9FED350A2B4880ED060A04E009
:100C60009FED2B0A284880ED060A2D4890ED010AD9
:100C7000F0EE080AB4EE600AF1EE10FA14D1294839
:100C800090ED000AB5EEC00AF1EE10FA0CD06D201E
:100C900000F0A0FB9FED260A1B4880ED090A9FED9E
:100CA0001C0A204880ED000A174890ED060AB1EEB4
:100CB000400A80ED070A194890ED010A80ED020A0A
:100CC00090ED000A80ED010A0F4890ED040A1348E8
:100CD00080ED000A282304220B49F220FFF7BBFD18
:100CE000CEE100005C020020780500205D020020BB
:100CF0006C020020880400202000002068020020F0
:100D00000000C84200000243840500207C0200204D
:100D1000000000000000164300009643AC050020D0
:100D2000740200208402002000004843000048C3F1
:100D300000004842D548007800EB8000D44901EB20
:100D4000C0004088342858D1D2480079D149C978A8
:100D500040EA012000B2D0490880CE488079CD49D0
:100D6000497940EA012000B2CB494880C948007A5D
:100D7000C849C97940EA012000B2C74988800846BD
:100D8000B0F9000000EE100AB8EEC00AC348D0ED7A
:100D9000000A80EE201ABD48007800EB8000BC49B4
:100DA00001EBC00080ED011ABB48B0F9020000EE73
:100DB000100AB8EEC00AB948D0ED000A80EE201A39
:100DC000B248007800EB800001EBC00080ED021A11
:100DD000B148B0F9040000EE100AB8EEC00AAF48FE
:100DE000D0ED000A80EE201AA848007800EB8000C1
:100DF00001EBC00080ED031A42E1A448007800EB4B
:100E00008000A34901EBC00040883728F4D1A148F5
:100E10000079A049C97840EA012000B2A0490880C1
:100E20009C4880799B49497940EA012000B29C495D
:100E300048809848007A9749C97940EA012000B271
:100E4000974988800846B0F9000000EE100AB8EE15
:100E5000C00A9448D0ED000A80EE201A8B48007832
:100E600000EB80008A4901EBC00080ED041A8C4839
:100E7000B0F9020000EE100AB8EEC00A8948D0EDC1
:100E8000000A80EE201A8148007800EB800001EB18
:100E9000C00080ED051A8248B0F9040000EE100A87
:100EA000B8EEC00A7F48D0ED000A80EE201A7748DD
:100EB000007800EB800001EBC00080ED061A73485B
:100EC000007800EB80000A4632F8305005EBD57010
:100ED0004010A5EB400000EB4000734A02EB80009D
:100EE00090ED010A10EE101A084602F0E5F941EC07
:100EF0001B0B9FED6E0B53EC102B01F0F5FF41EC3B
:100F0000190B6248007800EB8000614A32F83060CB
:100F100006EBD6704010A6EB400000EB4000624AA2
:100F200002EB800090ED000A10EE101A084602F065
:100F3000C3F941EC1D0B9FED5F0B53EC102B01F03F
:100F4000D3FF41EC1B0B5148007800EB8000504A66
:100F500002EBC00090ED040A10EE101A084602F0F1
:100F6000ABF941EC1D0B9FED550B53EC102B01F031
:100F7000BBFF41EC1C0B53EC1B2B01F00DFF41ECB4
:100F80001A0B53EC192B01F007FF41EC180B01F081
:100F9000D1FE3E49097801EB81013D4A32F83170BA
:100FA00007EBD7714910A7EB4101891C454A42F86C
:100FB0002100364A127802EB8202354B33F83200B8
:100FC00000EBD0725210A0EB420202EB4202364B11
:100FD00003EB820292ED010A2C4A127802EB8202A4
:100FE0002B4B33F8321001EBD1725210A1EB4202BD
:100FF00002EB42022C4B03EB820282ED020A234AEF
:10100000127802EB8202224B33F8320000EBD072EE
:101010005210A0EB420202EB4202234B03EB82028E
:1010200092ED000A194A127802EB8202184B33F84B
:10103000321001EBD1725210A1EB420202EB4202DC
:10104000194B03EB820282ED010A1049097801EB8A
:1010500081010F4A02EBC10191ED040A0B490978A5
:1010600001EB810132F8310000EBD0714910A0EBA7
:10107000410101EB41011A4602EB810181ED000AB9
:1010800000201149087000BF3DE400006C02002000
:101090008804002078050020100000206002002055
:1010A0001800002064020020B80500209A99999940
:1010B0009999C93F333333333333D33F00000000B2
:1010C0000000E03F840500205C02002030B5CC1019
:1010D00000F1200353F824304C07E50E0F24AC40F8
:1010E000A343CD1000F1200444F82530CC1000F1CA
:1010F000200353F824304C07E40E02FA04F423438F
:10110000CD1000F1200444F8253030BD2DE9F04722
:101110000C46DDE90867002100258C4600BF60E031
:101120004FF0010808FA01F504EA050CAC4557D167
:10113000D0F800804FEA410A4FF0030909FA0AF992
:1011400028EA0908C0F80080D0F800804FEA410979
:1011500002FA09F948EA0908C0F80080012A01D01A
:10116000022A27D1D0F808804FEA410A4FF003093C
:1011700009FA0AF928EA0908C0F80880D0F80880B6
:101180004FEA410906FA09F948EA0908C0F8088057
:10119000D0F804904FF0010808FA01F829EA08098C
:1011A000C0F80490D0F8048003FA01F948EA09086D
:1011B000C0F80480D0F80C804FEA410A4FF00309D0
:1011C00009FA0AF928EA0908C0F80C80D0F80C805E
:1011D0004FEA410907FA09F948EA0908C0F80C8002
:1011E000491C10299CD3BDE8F08700001CB50B48B2
:1011F000006840F020000949086001200321002315
:101200000246CDE9001049020548FFF77FFF0120A3
:10121000044908600449C1F8A8021CBD30380240E6
:1012200000140240A4824242008042422DE9F04173
:101230000746884614461D46284600F033F8C5F197
:10124000040007FA00F60F20284100EA08000643D0
:1012500006F00F06E21704EBD2625211920002F17F
:10126000E022D2F800212146E31704EBD3635B119F
:10127000A4EB431C012303FA0CF31A432046E317A3
:1012800004EBD3635B119B0003F1E023C3F800215F
:101290000348005D40EA061001490855BDE8F081A9
:1012A00000E400E00146072323EA01021202054B95
:1012B00018684FF6FF031840034B18431043014BC7
:1012C000186070470CED00E00000FA054A0A52026F
:1012D0000243014B1A60704708ED00E02DE9FC5F06
:1012E00006468B46174698464FF000090025002415
:1012F00000BF10E02F48405DB0420AD105EB8500E9
:101300002D4921F8306005EB850001EBC0004780D6
:1013100003E0681CC5B2062DECDB00BFF2B220462C
:10132000611CCCB20DF800200BF0FF022046611CBE
:10133000CCB20DF800203802C2B22046611CCCB2FB
:101340000DF80020FAB22046611CCCB20DF8002046
:101350004FEA0820C2B22046611CCCB20DF8002032
:1013600008F0FF022046611CCCB20DF80020214697
:101370006846FFF79DFA0FFA80FA0AF0FF0220464E
:10138000611CCCB20DF80020CAF307222046611C74
:10139000CCB20DF800204FF0000907E01DF809005D
:1013A00000F029FB09F1010000F0FF09A145F5DD7E
:1013B000BDE8FC9F500000208804002000BF0449C5
:1013C000098801F080010029F9D00149888070471F
:1013D0000010014000BF0549098801F08001002983
:1013E000F9D00249091D08807047000000480040FC
:1013F000F0B52DED028B83B005460E46434905FB43
:1014000001F000EE100AF8EE400A300100EE100A7A
:10141000B8EE400A80EE801AB0EE418ABCEEC80AEF
:1014200010EE100A84B200EE104AB8EE400A38EE10
:10143000400AF3EE000A20EE200ABCEEC00A10EECD
:10144000107A4FF6FF7000EA0414E01984B23048B5
:10145000006840F001002E4908600846006840F02E
:10146000400008600120032100230246CDE900105E
:1014700001022848FFF74AFE0120022100230A4604
:10148000CDE900100C212448FFF740FE072202217D
:101490002148FFF71BFE072203211F48FFF716FE16
:1014A0001B481030006840F40030194910310860C2
:1014B00017481038006840F40030154910390860AA
:1014C0000846006820F40030086014480480001DBD
:1014D000008842F20C0108431049091D08800846A3
:1014E000008840F0040008800846008840F0200092
:1014F00008800223262203210846FFF797FE0020DA
:101500000749086003B0BDEC028BF0BD40420F00FC
:1015100030380240001802400000024008440040F9
:10152000A002434210B502460123104C2360002064
:101530000CE000BF0E4B1B8803F04003002BF9D0DA
:10154000135C0B4C241D2380431CD8B28842F0DB73
:1015500000BF074B1B8803F04003002BF9D000238A
:10156000044C2370014C236010BD0000A0024342D4
:101570000044004006000020F0B504460D46164623
:101580001F461448006840F001001249086000201E
:101590001049083108600F4800680F4908400D499C
:1015A00008600E48091D0860081F006820F48020AC
:1015B000091F0860002007490C3108603B4632468D
:1015C0002946204600F00CF800210846FFF77EFE71
:1015D000F0BD000000380240FFFFF6FE103000248E
:1015E000F0B504460D46002100203D4E366846F415
:1015F00080363B4F3E6001E04E1CB1B2384E36683B
:1016000006F400361EB941F6FF76B142F4DB41F62E
:10161000FF76B14201D1012060E0314E403636689C
:1016200046F080562E4F40373E602E4E366846F4C8
:1016300040462C4F3E602A4E0836366846F4144623
:10164000274F08373E60264E366826F08076244FB6
:101650003E6045EA84160127C7EB520746EA074673
:1016600046EA036646F480061D4F3F1D3E603E1F5E
:10167000366846F080763F1F3E6000BF184E3668E1
:1016800006F00076002EF9D0174E366846F48076C4
:10169000154F3E603E46366846F400763E603E4654
:1016A000366846F480663E603E46366846F005067B
:1016B0003E600B4E0836366826F00306084F0837A2
:1016C0003E603E46366846F002063E6000BF044E6D
:1016D0000836366806F00C06082EF8D1F0BD00007A
:1016E0000038024000700040003C024010B50C4839
:1016F000008800F0010058B10A49086980470020BD
:101700000749143108604FF47A7005491C310860AC
:101710000348008820F001000149088010BD000046
:1017200010080040CC02002070B505460C46104859
:10173000006840F004000E4908600E480560001F74
:1017400004800C482038008840F001000949203905
:10175000088008482C38008840F0010005492C39E1
:10176000088002231E2203210846FFF75FFD70BD9B
:10177000403802402C0800401C49098801F0200133
:1017800009B31A498988C8B21949098801F4004186
:10179000C9B91749098801F4804161B10A2803D009
:1017A0000021134A118020E01149098841F40041C9
:1017B0000F4A118019E00D2806D10D49098841F41E
:1017C00080410B4A118010E009490988C1F30D01DD
:1017D000084A505406490988491C054A1180114697
:1017E0000988C72901DD00211180704700100140E0
:1017F00004000020C003002010B50648008800F057
:10180000200030B10348001D0088C4B22046FFF715
:1018100069F810BD0044004030380A2801D2012088
:1018200070470020704700BF704700004FF0E02174
:10183000096921F004014FF0E0221161C21700EBA9
:101840005272C2F3C702074B1A701946097801EBAE
:101850004102C2EBC1114FF6FF7202EAC101024A16
:1018600011807047000000200200002070B504467F
:101870004FF4077094FBF0F0C6B24FF4077094FB7E
:10188000F0F100FB114085B205E04FF4077000F065
:1018900027F8701EC6B2002EF7D115B1284600F009
:1018A0001FF870BD01460D4A12784A434FF0E023FD
:1018B0005A6100229A6101221A6100BF4FF0E022B2
:1018C000106900F001021AB100F48032002AF5D04C
:1018D00000224FF0E0231A619A6170470000002057
:1018E00001460D4A12884A434FF0E0235A61002214
:1018F0009A6101221A6100BF4FF0E022106900F0E6
:1019000001021AB100F48032002AF5D000224FF013
:10191000E0231A619A6170470200002000BF054A67
:10192000128802F04002002AF9D0C2B2014B9A801C
:1019300070470000001001400723022208214FF4E5
:10194000A870FFF719FEA820FFF770FF4FF4E131F0
:10195000542000F0C9F84FF4E1312A2000F052F889
:10196000FFF744FC4FF4E1312A20FFF741FD3BE053
:101970001E49C87803233D221946FFF7AFFC032018
:10198000FFF774FF1949087903233D221946FFF731
:10199000A5FC0320FFF76AFF1449487903233D2281
:1019A0001946FFF79BFC0320FFF760FF0F49C8783B
:1019B000032337221946FFF791FC0320FFF756FF58
:1019C0000A490879032337221946FFF787FC0320C9
:1019D000FFF74CFF05494879032337221946FFF7E3
:1019E0007DFC0320FFF742FFC2E70000500000200B
:1019F00001460868704701B501216846FFF792FD6E
:101A000008BD0000F0B52DED028B83B005460E46F3
:101A1000314905FB01F000EE100AF8EE400A3001F2
:101A200000EE100AB8EE400A80EE801AB0EE418A4D
:101A3000BCEEC80A10EE100A84B200EE104AB8EEEE
:101A4000400A38EE400AF3EE000A20EE200ABCEE0F
:101A5000C00A10EE107A4FF6FF7000EA0414E01985
:101A600084B21E48006840F002001C4908601B4810
:101A70001030006840F480201849103108600120BF
:101A8000022100230A46CDE900104FF440611448BA
:101A9000FFF73CFB07220B211148FFF717FB07223A
:101AA0000A210F48FFF712FB0E480480001D008832
:101AB00020F400400B49091D08800846008840F0CA
:101AC000080008800846008840F40050088003B0F1
:101AD000BDEC028BF0BD000040420F0030380240E8
:101AE0000004024008480040F0B52DED028B83B0A1
:101AF00005460E46384905FB01F000EE100AF8EEE7
:101B0000400A300100EE100AB8EE400A80EE801A5A
:101B1000B0EE418ABCEEC80A10EE100A84B200EEA4
:101B2000104AB8EE400A38EE400AF3EE000A20EE02
:101B3000200ABCEEC00A10EE107A4FF6FF7000EAE1
:101B40000414E01984B22548006840F001002349DC
:101B5000086022481430006840F010001F4914311A
:101B600008600120022100230A46CDE900104FF44D
:101B7000C0611B48FFF7CAFA072209211848FFF77E
:101B8000A5FA07220A211648FFF7A0FA1548048192
:101B9000808920F40040134988810846808940F0FC
:101BA000080088810846808940F004008881084642
:101BB000808940F0200088810223252203210846E5
:101BC000FFF734FB0748808940F4005005498881BD
:101BD00003B0BDEC028BF0BD40420F003038024034
:101BE000000002400010014030B595B0054613AB2F
:101BF00012AA09A9284600F03FFA044614B120466B
:101C000015B030BD0020149026E0224909689DF8E7
:101C1000502001EBC20113AB11AA486801A900F0E2
:101C20002BFA04460CB12046EAE709A901A800F006
:101C3000DDFC60B99DF844009DF84810884201DD44
:101C40000220DDE79DF85000124988750AE09DF8F2
:101C50005000401CC0B214900E48007D9DF85010FA
:101C60008842D2DC00BF0B48007D9DF850108842AE
:101C700001D10420C4E714A9284600F0DDFA044687
:101C80000CB12046BCE79DF8500002494875002081
:101C9000B6E70000CC0200202DE9F0419AB09C4844
:101CA000847D007DA04202DC1AB0BDE8F081984935
:101CB000096801EBC40106AB07AA486808A900F04F
:101CC000DBF908A993A0FEF703FB002644E0904847
:101CD000008B0121B1400840D8B122218FA0FEF72E
:101CE000F7FA304600F02EFB89492431471839466F
:101CF0008BA0FEF7EDFA222188A0FEF7E9FA304624
:101D000000F020FB82492431084410A941F8260044
:101D100018E0304600F016FB7D492431085810A920
:101D200041F826007A48C07D30B910A850F8261036
:101D30007CA0FEF7CDFA05E010A850F826107AA096
:101D4000FEF7C6FA9DF81C00401EB04202D078A0F3
:101D5000FEF7BEFA701CC6B29DF81C008642B6DBC8
:101D600074A0FEF7B5FA00F03DFB6948407D0B28F2
:101D70000DD2DFE800F0060D151E27323F4E5F72D0
:101D800087006349096851F834008047054690E0B0
:101D90005F4A126852F8341010988847054688E068
:101DA0005B4B1B6853F83420DDE910019047054672
:101DB0007FE0574F3F6857F8343010A807C898475E
:101DC000054676E0DFF848C1DCF800C05CF8347006
:101DD00010A80FC8B84705466BE01498DFF830C16B
:101DE0000090DCF800C05CF8347010A80FC8B84749
:101DF00005465EE0DDE91401DFF814C1CDE900011C
:101E0000DCF800C05CF8347010A80FC8B84705466D
:101E10004FE0DDE914121698DFF8F4C0CDE90012A6
:101E20000290DCF800C05CF8347010A80FC8B84706
:101E300005463EE0DDE91423DDE91610DFF8D0C0E9
:101E4000CDE90023CDE90210DCF800C05CF8347065
:101E500010A80FC8B84705462BE0DDE91523DDE9DA
:101E60001710CDE90123CDE903101498DFF8A0C0C5
:101E70000090DCF800C05CF8347010A80FC8B847B8
:101E8000054616E0DDE91623DDE91810CDE9022349
:101E9000CDE90410DDE91401DFF874C0CDE90001DB
:101EA000DCF800C05CF8347010A80FC8B8470546CD
:101EB00000BF00BF00F056FA9DF8180001280CD1B1
:101EC0001348C07D20B929461BA0FEF701FA07E0A0
:101ED00029461BA0FEF7FCF902E018A0FEF7F8F96E
:101EE0000B4890F8EC0088B10948D0F8F0000A21BE
:101EF000B0FBF1F201FB12070548D0F8F000B0FB8F
:101F0000F1F83A46414611A0FEF7E2F900BFCBE6F0
:101F1000CC0200200D0A2573280000002563000074
:101F200025730000256C640030582558000000001F
:101F30002C000000290000003D256C753B0D0A00B7
:101F40003D305825583B0D0A0000000046756E6371
:101F500074696F6E2052756E2054696D653A256400
:101F60002E2531646D730D0A00000000F0B50346A4
:101F7000154600200022002600245BE01F782C2F4D
:101F800001D104B901221F78292F01D01F780FB980
:101F900004B950E0002E3AD11F78302F02DB1F78B1
:101FA000392F17DD1F782D2F14D01F782B2F11D02C
:101FB0001F78612F02DB1F78662F0BDD1F78412F02
:101FC00002DB1F78462F05DD1F78582F02D01F78BF
:101FD000782F0CD102B12EE01F78612F03DB1F7820
:101FE000203F0F7001E01F780F70491C1FE01F7821
:101FF000222F04D102B11EE00126012417E01F7830
:10200000202F14D01F782C2F11D0FF2613E01F781B
:10201000222F00D1002402B10DE044B11F785C2FC3
:1020200002D15B1C471CF8B21F780F70491C471C7B
:10203000F8B25B1CA2E700BF00270F702E70F0BD46
:1020400010B50446002010700BE020780870641C66
:10205000491C1078401C10701078984201DB012058
:1020600010BD2078202802D020780028EDD1002053
:10207000087000BFF4E700002DE9FF4F85B08046EF
:1020800089460027002004900390012002904FF021
:10209000000B002544461DE02078202816D005F0CE
:1020A0007F00052812DA0DB945F0800505F07F00A4
:1020B000042803D120782A2800D00EE0207805F0EB
:1020C0007F010DF80100681CC5B202E0852D00D12A
:1020D00003E0641C20780028DED100BF8DB1002011
:1020E00005F07F010DF8010051A1684600F07EFA6D
:1020F00018B900210898017002E0012108980170C8
:1021000000254FF0000A444614E0641C0AF1010067
:1021100000F0FF0A2078202802D020782A2809D150
:10212000204600F0D5F90646282E03D02A2E01D0ED
:10213000CDF810A02078282802D020780028E4D1FB
:102140004446049810B10498401C04444FF0000A1F
:10215000002654E0207810B94FF0010A50E02078B2
:10216000282803D116B9781CC7B213E02078292893
:1021700008D13EB917B1781EC7B201E04FF0010A8D
:1021800047B93DE02078222804D10EB9012000E0B3
:102190000020064647B9207820282FD0207889F8DB
:1021A000000009F1010929E020782C2804D1012040
:1021B0000290681CC5B214E02078202811D0207845
:1021C00028280ED04DB9BBF1050F06DA20780DF89E
:1021D0000B000BF1010000F0FF0B0298401CC0B295
:1021E0000290012F0AD10298022807D10298401CC0
:1021F000C0B202900398401CC0B20390641CA9E7CF
:1022000000BF0398012809D100200DF80B0008A198
:10221000684600F0EBF908B900200390079903988D
:102220000870002089F80000504609B0BDE8F08F22
:10223000766F6964000000002DE9F043B5B00546F3
:102240000F460024002604E000213D488155701C03
:10225000C6B20A2EF8DB06E06D1C287818B90120FA
:1022600035B0BDE8F08328782828F5D16D1C61E0F1
:1022700034AA69462846FFF779FE064635449DF89C
:10228000D00020B1012827D0FF284CD149E09DF88B
:10229000000000B333A9684600F025F906460EB1E8
:1022A0000220DDE7204600F04DF825490A31339A37
:1022B0000A50A1F12400008B0121A140884320494C
:1022C0001A39088304211E480155601CC4B20A2C27
:1022D00001DD0320C4E726E0684600F0A3F9401CB6
:1022E00000F0FF08204600F02DF815490A3100EBF8
:1022F00001094946684600F08AF911481A38018BED
:102300000120A040014388B20D491A3908830C48C6
:1023100000F80480601CC4B20A2C01DD03209FE792
:1023200001E002209CE700BF2878292801D0287806
:1023300000B900E09CE700BF3C70002090E700007F
:10234000E602002002460020002105E0044B5B5C11
:102350000344D8B24B1CD9B29142F7DB704700005E
:10236000E60200200D48008800F0010040B10C4852
:10237000D0F8F0004FF6FF7108440949C1F8F000A9
:102380000748D0F8F00005491431096808440449A9
:10239000C1F8F0000846D0F8F0007047100800407F
:1023A000CC02002010B5044604EBC40000EB04107E
:1023B0000122C2EB800081B24FF47A70FFF7B4F9CA
:1023C00001200149C87510BDCC02002010B502469D
:1023D000012000E050430B1EA1F10104E1B2F9D14C
:1023E00010BD00000948008820F00100074908805E
:1023F0004FF6FF7005491C31086000200349143175
:1024000008600349C1F8F000704700001008004060
:10241000CC02002070B51D48008800F40040002860
:1024200033D01A4805780020194948551948816861
:102430001748884704461CB91649C868804721E0F8
:10244000134800F0FBF80546012D00D02C46CCB116
:10245000012C06D0022C08D0032C0AD0042C10D159
:102460000BE00DA0FDF734FF0BE00EA0FDF730FFF1
:1024700007E00FA0FDF72CFF03E010A0FDF728FFF9
:1024800000BF00BF00200149088070BD040000208B
:10249000C0030020CC020020BAAFCAFDB4EDCEF3D9
:1024A000210D0A00B2CECAFDB4EDCEF3210D0A0013
:1024B000B2CECAFDCCABB6E0210D0A00CEB4D5D267
:1024C000B5BDC6A5C5E4B5C4BAAFCAFD210D0A00A5
:1024D0000146491C00E0491C0878202801D1002948
:1024E000F9D1087870472DE9F04F05460F460026D0
:1024F0004FF00A09B3462C460020386034E02078BB
:10250000392802DC2078302811DA28782D2802D0EA
:1025100028782B2800D156B12078462802DC207874
:10252000412804DA2078582817D1012E15D12078B7
:10253000412801DB4FF0100928782D2803D14FF0F6
:10254000020B6D1C0FE028782B2803D14FF0010BF4
:102550006D1C08E0701CC6B205E0207800B904E0EC
:102560000120BDE8F08F641CC9E700BF2C46B9F11B
:10257000100F0FD1032E01DA0220F2E72078302865
:1025800006D16078582803D1A41CB01EC6B204E05E
:102590000320E6E70EB90420E3E71BE00EB1701E4E
:1025A000C6B22078392806DC2078302803DB207872
:1025B000A0F1300A02E02078A0F1370A31464846FF
:1025C000FFF704FF39680AFB00103860641C2078AC
:1025D00000B900E0E2E700BFBBF1020F04D13868A8
:1025E000C0F10008C7F800800020BAE702460AE000
:1025F00010780B78984201D001207047107800B90C
:1026000002E0521C491CF3E700BF0020F5E706E09A
:1026100002780A70027802B902E0401C491CF7E710
:1026200000BF70470146002005E00A7802B903E0C8
:10263000421CD0B2491CF8E700BF704710B58CB0FF
:1026400004461E230BAA03A92046FFF7F9FC0090BD
:10265000009810B101200CB010BD9DF82C0004446E
:1026600000200B900EE040489DF82C2050F82210DE
:1026700003A8FFF7BBFF00B908E09DF82C00401C41
:10268000C0B20B909DF82C000728ECD300BF9DF83A
:102690002C00072863D2DFE800F004053C5E656487
:1026A000630000BF31A0FDF713FE31A0FDF710FE5F
:1026B0003FA0FDF70DFE4EA0FDF70AFE5CA0FDF762
:1026C00007FE6BA0FDF704FE79A0FDF701FE87A0D1
:1026D000FDF7FEFD8CA0FDF7FBFD94A0FDF7F8FDD6
:1026E00098A0FDF7F5FD9DA0FDF7F2FDA2A0FDF776
:1026F000EFFDA8A0FDF7ECFDB4A0FDF7E9FDC1A03A
:10270000FDF7E6FDCCA0FDF7E3FDD8A0FDF7E0FD69
:10271000A2E216A0FDF7DCFDE4A0FDF7D9FD002044
:102720000B900EE0F14800689DF82C2000EBC200F1
:102730004168EFA0FDF7CCFD9DF82C00401CC0B215
:102740000B90EA48007D9DF82C108842EADC07A037
:10275000FDF7BEFD80E205A0FDF7BAFDCCE179E210
:102760004DE221E2F4E10000880200200D0A0000A1
:102770002D2D2D2D2D2D2D2D2D2D2D2D2D2D2D2D89
:102780002D2D2D2D2D2D2D2D55534D41525420568F
:10279000332E322D2D2D2D2D2D2D2D2D2D2D2D2D5D
:1027A0002D2D2D2D2D2D2D2D2D2D2D200D0A000003
:1027B0002020202055534D415254CAC7D3C9414C03
:1027C00049454E54454BBFAAB7A2B5C4D2BBB8F6D3
:1027D000C1E9C7C9B5C4B4AEBFDAB5F7CAD4BBA5A1
:1027E000BDBBD7E9BCFE2CCDA8B9FD200D0A000069
:1027F000CBFC2CC4E3BFC9D2D4CDA8B9FDB4AEBFC5
:10280000DAD6FACAD6B5F7D3C3B3CCD0F2C0EFC389
:10281000E6B5C4C8CEBACEBAAFCAFD2CB2A2D6B401
:10282000D0D02ED2F2B4CB2CC4E3BFC90D0A000025
:10283000D2D4CBE6D2E2B8FCB8C4BAAFCAFDB5C4B4
:10284000CAE4C8EBB2CECAFD28D6A7B3D6CAFDD714
:10285000D62831302F3136BDF8D6C62CD6A7B3D600
:10286000B8BACAFD29A1A2D7D6B7FBB4AE0D0A00EB
:10287000A1A2BAAFCAFDC8EBBFDAB5D8D6B7B5C802
:10288000D7F7CEAAB2CECAFD292CB5A5B8F6BAAFF5
:10289000CAFDD7EEB6E0D6A7B3D63130B8F6CAE453
:1028A000C8EBB2CECAFD2CB2A2D6A7B3D60D0A0091
:1028B000BAAFCAFDB7B5BBD8D6B5CFD4CABE2ED62F
:1028C000A7B3D6B2CECAFDCFD4CABEBDF8D6C6C94C
:1028D000E8D6C3B9A6C4DC2CD6A7B3D6BDF8D6C6F5
:1028E000D7AABBBBB9A6C4DC2E0D0A00BCBCCAF576
:1028F000D6A7B3D63A7777772E6F70656E65647614
:102900002E636F6D0D0A000055534D415254D3D0C4
:1029100037B8F6CFB5CDB3C3FCC1EE28B1D8D0EBF4
:10292000D0A1D0B4293A0D0A000000003F3A20207F
:1029300020202020BBF1C8A1B0EFD6FAD0C5CFA28D
:102940000D0A000068656C703A202020BBF1C8A118
:10295000B0EFD6FAD0C5CFA20D0A00006C6973742F
:102960003A202020BFC9D3C3B5C4BAAFCAFDC1D075
:10297000B1ED0D0A0A00000069643A2020202020F1
:10298000BFC9D3C3BAAFCAFDB5C44944C1D0B1EDC4
:102990000D0A0A006865783A20202020B2CECAFDD0
:1029A0003136BDF8D6C6CFD4CABE2CBAF3B8FABFFA
:1029B000D5B8F12BCAFDD7D6BCB4D6B4D0D0BDF8AB
:1029C000D6C6D7AABBBB0D0A0A0000006465633AED
:1029D00020202020B2CECAFD3130BDF8D6C6CFD4DB
:1029E000CABE2CBAF3B8FABFD5B8F12BCAFDD7D6F8
:1029F000BCB4D6B4D0D0BDF8D6C6D7AABBBB0D0ADE
:102A00000A00000072756E74696D653A312CBFAAB8
:102A1000C6F4BAAFCAFDD4CBD0D0BCC6CAB13B3025
:102A20002CB9D8B1D5BAAFCAFDD4CBD0D0BCC6CAA8
:102A3000B13B0D0A0A000000C7EBB0B4D5D5B3CC4A
:102A4000D0F2B1E0D0B4B8F1CABDCAE4C8EBBAAFB5
:102A5000CAFDC3FBBCB0B2CECAFDB2A2D2D4BBD8B1
:102A6000B3B5BCFCBDE1CAF82E0D0A002D2D2D2DED
:102A70002D2D2D2D2D2D2D2D2D2D2D2D2D2D2D2D86
:102A80002D2D2D2D2D2D414C49454E54454B2D2D91
:102A90002D2D2D2D2D2D2D2D2D2D2D2D2D2D2D2D66
:102AA0002D2D2D2D2D2D2D200D0A00002D2D2D2D00
:102AB0002D2D2D2D2D2D2D2D2D2D2D2D2D2D2D2D46
:102AC0002D2D2D2D2DBAAFCAFDC7E5B5A52D2D2D68
:102AD0002D2D2D2D2D2D2D2D2D2D2D2D2D2D2D2D26
:102AE0002D2D2D2D2D2D2D2D200D0A00CC02002059
:102AF00025730D0A0000000059A0FDF7E9FB002036
:102B00000B901AE0664909689DF82C2001EBC20180
:102B100001AB02AA486803A9FFF7AEFA6048006853
:102B20009DF82C1050F8312003A95EA0FDF7D0FBD2
:102B30009DF82C00401CC0B20B905948007D9DF8B8
:102B40002C108842DEDCAFF2DC30FDF7C1FB83E005
:102B5000AFF2E830FDF7BCFB0BAA03A92046FFF754
:102B600005FA9DF82C00C8B9694603A8FFF7BBFC1D
:102B70000B909DF82C0020B94FA00099FDF7A8FB01
:102B80000EE09DF82C00042801D0022063E54DA042
:102B9000FDF79EFB01204249C87501E002205AE57D
:102BA00047A0FDF795FB57E045A0FDF791FB0BAA69
:102BB00003A92046FFF7DAF99DF82C00C8B9694649
:102BC00003A8FFF790FC0B909DF82C0020B942A0C1
:102BD0000099FDF77DFB0EE09DF82C00042801D044
:102BE000022038E53FA0FDF773FB00202C49C87593
:102BF00001E002202FE532A0FDF76AFB2CE030A0B7
:102C0000FDF766FB0BAA03A92046FFF7AFF99DF875
:102C10002C00C8B9694603A8FFF765FC0B909DF826
:102C20002C0078B91E49009881F8EC00084690F80D
:102C3000EC0018B130A0FDF74BFB07E035A0FDF725
:102C400047FB03E0022006E5022004E51CA0FDF797
:102C50003FFB01E00120FEE400BF0020FBE4000098
:102C60002D2D2D2D2D2D2D2D2D2D2D2D2D2D2D2D94
:102C70002D2D2D2D2D2D2D2D2DBAAFCAFD204944E2
:102C8000202D2D2D2D2D2D2D2D2D2D2D2D2D2D2D81
:102C90002D2D2D2D2D2D2D2D2D2D2D2D200D0A00E1
:102CA000CC02002025732069642069733A0D0A3034
:102CB00058253038580D0A004845583A305825589C
:102CC0000D0A00003136BDF8D6C6B2CECAFDCFD44B
:102CD000CABE210D0A0000004445433A256C750D1B
:102CE0000A0000003130BDF8D6C6B2CECAFDCFD43E
:102CF000CABE210D0A00000052756E2054696D6530
:102D00002043616C63756C6174696F6E204F4E0D6A
:102D10000A00000052756E2054696D652043616C95
:102D200063756C6174696F6E204F46460D0A000032
:102D30000160704721F00042A2F16052B2F5801F9D
:102D400001F0004328BFD2F17F6C0BD95FEA001C71
:102D500043EAC20242EB507018BF704728BF20F010
:102D600001007047B2F5801FBCBF184670474FEA9C
:102D7000410C1CF5001F02D2084600F013BB70B5D1
:102D800000F05CF900000089FFF7F6BF4FF000404B
:102D9000A0F580007047000010B591EA030F48BF0E
:102DA00083F0004300F1A681841A71EB030C05D275
:102DB000121943EB0C03001B61EB0C01DFF824E15B
:102DC0004FEA1154A4EB135C1EEA430F18BF9EEAAE
:102DD000445F73D023EA0E03DCF1200E21EA045194
:102DE00043F4801332D322FA0CFE10EB0E0023FAC8
:102DF0000CFE41EB0E01CCF1200E03FA0EFE10EB9F
:102E00000E0051F10001B1F5801FCCF1200E32D23D
:102E100001EB045112FA0EF2BDE8104058BF7047A2
:102E2000401C38BF5FEA420218BF7047002814BF39
:102E300020F0010041F100014FEA410313F5001FAA
:102E400038BF7047A1F1C04100F046B9012A43EBF9
:102E50000302ACF1200CDCF11F0E32BF4FF0000E6C
:102E600023FA0CF310EB030041EB0451B4EB115FB8
:102E7000D0D0A1EB045101F5801149085FEA300080
:102E800001EB04510ED350F1000038BF12FA0EFED0
:102E900008D1BDE81040C9E7401C38BF5FEA4202D4
:102EA000CAD1C3E7BDE810404FEA410313F5001F44
:102EB00038BF7047A1F1C04100F00EB99EEA445FEF
:102EC00008D011EA5E0FBDE8104004BF01F00041D8
:102ED00000207047BDE8104070B500F0AFF800BFAB
:102EE00064FBBE3E0000E0FFDFF848C170B51CEA9D
:102EF000111E1EBF1CEA13159EEA0C0F95EA0C0F5B
:102F000000F06F8081EA030423EA4C134EEAD47E7A
:102F100021EA4C1141F4801143F48013AE44A1FB2B
:102F2000024CA0FB0365AEF17F7E361955EB0C0514
:102F3000A1FB034C4CF10003A0FB021C16EB0C069A
:102F4000654153F10003094218BF46F0010613F42E
:102F5000007F0BD14FEA03314FEA0530340341EAD9
:102F6000155140EA16506FF003020AE04FEAC32100
:102F70004FEAC520F40241EA555140EA56506FF03D
:102F8000020202EB2E4201EB025585EACE710AD015
:102F90005FEA440C18BF24F0004450F1000041F1F6
:102FA000000120EAD47040F2FE7C624500D270BD80
:102FB000A84214BF4FF080444FF04044002E08BF99
:102FC0000024BEF1806FA8BFA1F1C041BDE87040F0
:102FD00080F282804FF0000001F1C04101F0004119
:102FE00070479EEA0C0F0CEA131518BF95EA0C0FF8
:102FF00006D04FF0000081EA030E0EF0004170BDD4
:1030000000F01CF88900013E00F007B800F009B894
:103010004FEA430C5FEA5C5C08D081EA030100F0F0
:103020005BB84FEA410C5FEA5C5CF6D14FF0000000
:10303000014970470000FF070000F87F0EF1020E03
:103040002EF0030E5EF8046B364205D4012A43EBE2
:10305000030515F5001F12D8012841EB010C1CF5E2
:10306000001F0CD80ED14FEAD17C15F5001F0CEBD8
:103070004C0C0CF1020C08BF4CEBD37C04E04FF07D
:10308000080C01E04FEAD37C0CEB4C0526FA05F660
:1030900006F00706B6F1040C06D20EEB860CBDE86E
:1030A00070404CF0010C6047DFE80CF0090B0202A5
:1030B0004FF000414FF00000A1F5002170BD19460E
:1030C0001046012851EB010418BFD4F5001484BF49
:1030D000002001F0004170BD0808A0F500114FEA82
:1030E0003101704710B591EA030F48BF83F00043E8
:1030F0003FF55AAE841A71EB030C07D212198CF00B
:10310000004C43EB0C03001B61EB0C01DFF8A4E166
:103110004FEA1154A4EB135C1EEA430F18BF9EEA5A
:10312000445F00F0B08023EA6E03524221EA04516A
:10313000C3EB6E0338BF5B1EDCF1200E25D322FAF1
:103140000CFE10EB0E0043FA0CFE41EB0E01CCF12D
:10315000200E03FA0EFE10EB0E0051F10001CCF12F
:10316000200E29D412FA0EF201EB0451BDE81040F2
:1031700058BF7047401C1CBFB2F1004F7047002879
:103180000CBF491C20F00100704712EB020E43EB0C
:10319000030218BF4FF0010E4EEA4202ACF1200CC0
:1031A000DCF11E0E54D943FA0CFE10EB0E0051F167
:1031B000FF31CCF11E0ED5D50EF1010E12FA0EFE26
:1031C000404141EB010101EB445C5FEA5C5C10D9DA
:1031D00010EBDE7001EB045138BFBEF1004FBDE8CB
:1031E000104018BF704700280CBF491C20F0010098
:1031F000704730D24FEAD42C11F5001124F400644A
:103200001BD0B1FA81F20B3AA41AA41ED2F120030A
:10321000914030FA03F31943904001EBCC71002C3C
:1032200001EB0451BDE81040A8BF704701F1C04157
:103230004FF0000001F000417047B0FA80F310FA3F
:1032400003F100D110BDE41A173C4805C90AE4E7B0
:1032500001EB045110BD491001EB0451BDE81040D1
:103260004FEA300002E04FF0000170474A0008BF0B
:103270000042F8D0B2F5001F28BF704701F00041AE
:103280004FF0000070479EEA445F07D011EA5E0FDE
:10329000BDE8104004BF002100207047BDE8104089
:1032A00070B5FFF7CBFE00BF40DFF63E83F0004174
:1032B000104670470000E0FF43004FEAD30C4FEA8E
:1032C0003C0C43401FBF40070CF1605113F0FE4F10
:1032D00070471CF0006F03D100200CF000417047D4
:1032E0000CF0004343EA507010B540EACC0000F007
:1032F0000EF800BF000000924FEA0001FFF7ECBE9D
:103300004FF000414FF00000A1F5002170470EF191
:10331000020E2EF0030E5EF8044B244204D44FEA52
:103320004102B2F17F4F11D84FEA4003B3F17F4F12
:103330000CD80ED14FEAD07CB2F17F4F0CEB4C0C85
:103340000CF1020C08BF4CEBD17C04E04FF0080CF0
:1033500001E04FEAD17C0CEB4C0324FA03F404F0B7
:103360000704B4F1040C06D20EEB840CBDE8104047
:103370004CF0010C6047DFE80CF0070802024FF048
:103380000040A0F5800010BD0846420018BFD2F1F1
:10339000807288BF00F0004010BD4FF04070E1EE39
:1033A000100A7047FF2141EAD050C0057047303104
:1033B000323334353637383941424344454640305C
:1033C000580030313233343536373839616263640E
:1033D000656640307800040000080000000000002E
:1033E00000020001000010003F000000646563005F
:1033F0006964000072756E74696D650068656C7053
:10340000000000006C6973740000000068657800BB
:10341000766F69642077726974655F61646472288D
:1034200075333220616464722C7533322076616C9E
:1034300029000000766F69642052533438355F5399
:10344000656E645F44617461287538202A62756610
:103450002C7538206C656E29000000007533322011
:10346000726561645F6164647228753332206164DF
:1034700064722900766F69642064656C61795F6DA0
:103480007328753136206E6D73290000766F69647C
:103490002064656C61795F757328753332206E75B1
:1034A00073290000C434000800000020C00300009D
:1034B000C401000854360008C00300207006000054
:1034C000200200080150175051525354552808C18A
:1034D000814001C0804104690C2908E918A91C0930
:1034E0001A30091638093660092E70092F6000FF5E
:1034F00000C0C101C30302C2C60607C705C5C40494
:10350000CC0C0DCD0FCFCE0E0ACACB0BC90908C803
:10351000D81819D91BDBDA1A1EDEDF1FDD1D1CDCF3
:1035200014D4D515D71716D6D21213D311D1D01063
:10353000F03031F133F3F23236F6F737F53534F453
:103540003CFCFD3DFF3F3EFEFA3A3BFB39F9F838C3
:1035500028E8E929EB2B2AEAEE2E2FEF2DEDEC2CB3
:10356000E42425E527E7E62622E2E323E12120E023
:10357000A06061A163A3A26266A6A767A56564A413
:103580006CACAD6DAF6F6EAEAA6A6BAB69A9A86883
:1035900078B8B979BB7B7ABABE7E7FBF7DBDBC7C73
:1035A000B47475B577B7B67672B2B373B17170B0E3
:1035B00050909151935352929656579755959454D3
:1035C0009C5C5D9D5F9F9E5E5A9A9B5B9959589843
:1035D000884849894B8B8A4A4E8E8F4F8D4D4C8C33
:1035E000448485458747468682424383418180A241
:1035F00040000D1CE1FA50436F1283413D0A3643EF
:1036000013E8331B08FC041304341B08F0081A0CDD
:10361000081AEC081AF40413F1191B085C10133192
:103620002D1B081008136D181B0874081AA5081A1A
:103630008C081325151B08340813A4021420A52395
:103640001408E91B1408991C140815242308050202
:04365000DC01000099
:040000050800018965
:00000001FF
